:1000000000308A001828000026308400831300087E
:10001000031917280230A100A001A00B0D28A10B85
:100020000C289730A000A00B1328800B0A2800345E
:10003000840183131F308305713083168F000F08EE
:100040008511831285151F13003083169100073028
:10005000831299001F1300308316910083121F1022
:1000600083160108C73908388100831290010730D0
:1000700099008316050806308312A000A00B3E28C5
:10008000000019088C118316990171308F000F0838
:10009000051083120514C830A6000420831605102D
:1000A00083120510C830A6000420831605108312A1
:1000B0000514C830A600042083160510831205100D
:1000C0008316071083120714C830A6000420831675
:1000D000071083120710C830A600042083160710EB
:1000E00083120714C830A600042083160710831259
:0800F000071083164828630085
:02400E00D430AC
:00000001FF
;PIC16F688
